{
  "_format": "hh-sol-artifact-1",
  "contractName": "EsusuPool",
  "sourceName": "contracts/EsusuPool.sol",
  "abi": [
    {
      "inputs": [],
      "stateMutability": "nonpayable",
      "type": "constructor"
    },
    {
      "anonymous": false,
      "inputs": [
        {
          "indexed": true,
          "internalType": "address",
          "name": "participant",
          "type": "address"
        },
        {
          "indexed": false,
          "internalType": "uint256",
          "name": "amount",
          "type": "uint256"
        },
        {
          "indexed": false,
          "internalType": "uint256",
          "name": "round",
          "type": "uint256"
        }
      ],
      "name": "ContributionReceived",
      "type": "event"
    },
    {
      "anonymous": false,
      "inputs": [
        {
          "indexed": true,
          "internalType": "address",
          "name": "participant",
          "type": "address"
        },
        {
          "indexed": false,
          "internalType": "uint256",
          "name": "amount",
          "type": "uint256"
        },
        {
          "indexed": false,
          "internalType": "uint256",
          "name": "round",
          "type": "uint256"
        }
      ],
      "name": "PayoutExecuted",
      "type": "event"
    },
    {
      "inputs": [],
      "name": "POOL_CONTRIBUTION_AMOUNT",
      "outputs": [
        {
          "internalType": "uint256",
          "name": "",
          "type": "uint256"
        }
      ],
      "stateMutability": "view",
      "type": "function"
    },
    {
      "inputs": [],
      "name": "currentRound",
      "outputs": [
        {
          "internalType": "uint256",
          "name": "",
          "type": "uint256"
        }
      ],
      "stateMutability": "view",
      "type": "function"
    },
    {
      "inputs": [
        {
          "internalType": "address",
          "name": "_recipient",
          "type": "address"
        }
      ],
      "name": "executePayout",
      "outputs": [],
      "stateMutability": "nonpayable",
      "type": "function"
    },
    {
      "inputs": [],
      "name": "getQueueCount",
      "outputs": [
        {
          "internalType": "uint256",
          "name": "",
          "type": "uint256"
        }
      ],
      "stateMutability": "view",
      "type": "function"
    },
    {
      "inputs": [
        {
          "internalType": "address",
          "name": "_participant",
          "type": "address"
        }
      ],
      "name": "recordContribution",
      "outputs": [],
      "stateMutability": "nonpayable",
      "type": "function"
    },
    {
      "inputs": [
        {
          "internalType": "uint256",
          "name": "",
          "type": "uint256"
        }
      ],
      "name": "rotationQueue",
      "outputs": [
        {
          "internalType": "address",
          "name": "wallet",
          "type": "address"
        },
        {
          "internalType": "bool",
          "name": "hasContributed",
          "type": "bool"
        },
        {
          "internalType": "bool",
          "name": "hasReceivedPayout",
          "type": "bool"
        }
      ],
      "stateMutability": "view",
      "type": "function"
    },
    {
      "inputs": [],
      "name": "treasury",
      "outputs": [
        {
          "internalType": "address",
          "name": "",
          "type": "address"
        }
      ],
      "stateMutability": "view",
      "type": "function"
    }
  ],
  "bytecode": "0x608060405234801561001057600080fd5b50336000806101000a81548173ffffffffffffffffffffffffffffffffffffffff021916908373ffffffffffffffffffffffffffffffffffffffff1602179055506001600281905550610bb2806100686000396000f3fe608060405234801561001057600080fd5b506004361061007d5760003560e01c806361d027b31161005b57806361d027b3146100d85780638091010b146100f65780638a19c8bc14610114578063b1c1ca1f146101325761007d565b806305409f33146100825780633471b3371461009e5780633e5b3398146100bc575b600080fd5b61009c600480360381019061009791906107e0565b610164565b005b6100a661047c565b6040516100b39190610826565b60405180910390f35b6100d660048036038101906100d191906107e0565b610489565b005b6100e06106dc565b6040516100ed9190610850565b60405180910390f35b6100fe610700565b60405161010b9190610826565b60405180910390f35b61011c610707565b6040516101299190610826565b60405180910390f35b61014c60048036038101906101479190610897565b61070d565b60405161015b939291906108df565b60405180910390f35b60008054906101000a900473ffffffffffffffffffffffffffffffffffffffff1673ffffffffffffffffffffffffffffffffffffffff163373ffffffffffffffffffffffffffffffffffffffff16146101f2576040517f08c379a00000000000000000000000000000000000000000000000000000000081526004016101e990610973565b60405180910390fd5b6000805b600180549050811015610335578273ffffffffffffffffffffffffffffffffffffffff166001828154811061022e5761022d610993565b5b9060005260206000200160000160009054906101000a900473ffffffffffffffffffffffffffffffffffffffff1673ffffffffffffffffffffffffffffffffffffffff1603610328576001818154811061028b5761028a610993565b5b9060005260206000200160000160149054906101000a900460ff16156102e6576040517f08c379a00000000000000000000000000000000000000000000000000000000081526004016102dd90610a0e565b60405180910390fd5b60018082815481106102fb576102fa610993565b5b9060005260206000200160000160146101000a81548160ff02191690831515021790555060019150610335565b80806001019150506101f6565b508061042357600160405180606001604052808473ffffffffffffffffffffffffffffffffffffffff168152602001600115158152602001600015158152509080600181540180825580915050600190039060005260206000200160009091909190915060008201518160000160006101000a81548173ffffffffffffffffffffffffffffffffffffffff021916908373ffffffffffffffffffffffffffffffffffffffff16021790555060208201518160000160146101000a81548160ff02191690831515021790555060408201518160000160156101000a81548160ff02191690831515021790555050505b8173ffffffffffffffffffffffffffffffffffffffff167fd2dff949d20e874cc6ba1dcefb840fb8cf6000a4197bfb69accfea5a32443ff562632ea0600254604051610470929190610a2e565b60405180910390a25050565b6000600180549050905090565b60008054906101000a900473ffffffffffffffffffffffffffffffffffffffff1673ffffffffffffffffffffffffffffffffffffffff163373ffffffffffffffffffffffffffffffffffffffff1614610517576040517f08c379a000000000000000000000000000000000000000000000000000000000815260040161050e90610973565b60405180910390fd5b60005b6001805490508110156106d8578173ffffffffffffffffffffffffffffffffffffffff166001828154811061055257610551610993565b5b9060005260206000200160000160009054906101000a900473ffffffffffffffffffffffffffffffffffffffff1673ffffffffffffffffffffffffffffffffffffffff16036106cb57600181815481106105af576105ae610993565b5b9060005260206000200160000160159054906101000a900460ff161561060a576040517f08c379a000000000000000000000000000000000000000000000000000000000815260040161060190610aa3565b60405180910390fd5b600180828154811061061f5761061e610993565b5b9060005260206000200160000160156101000a81548160ff021916908315150217905550600060018054905062632ea06106599190610af2565b90508273ffffffffffffffffffffffffffffffffffffffff167f63f55f28cc9b6363ecdbaa936809f86425d5709291a6d3e58910f0d9fc4b390f826002546040516106a5929190610a2e565b60405180910390a2600260008154809291906106c090610b34565b9190505550506106d8565b808060010191505061051a565b5050565b60008054906101000a900473ffffffffffffffffffffffffffffffffffffffff1681565b62632ea081565b60025481565b6001818154811061071d57600080fd5b906000526020600020016000915090508060000160009054906101000a900473ffffffffffffffffffffffffffffffffffffffff16908060000160149054906101000a900460ff16908060000160159054906101000a900460ff16905083565b600080fd5b600073ffffffffffffffffffffffffffffffffffffffff82169050919050565b60006107ad82610782565b9050919050565b6107bd816107a2565b81146107c857600080fd5b50565b6000813590506107da816107b4565b92915050565b6000602082840312156107f6576107f561077d565b5b6000610804848285016107cb565b91505092915050565b6000819050919050565b6108208161080d565b82525050565b600060208201905061083b6000830184610817565b92915050565b61084a816107a2565b82525050565b60006020820190506108656000830184610841565b92915050565b6108748161080d565b811461087f57600080fd5b50565b6000813590506108918161086b565b92915050565b6000602082840312156108ad576108ac61077d565b5b60006108bb84828501610882565b91505092915050565b60008115159050919050565b6108d9816108c4565b82525050565b60006060820190506108f46000830186610841565b61090160208301856108d0565b61090e60408301846108d0565b949350505050565b600082825260208201905092915050565b7f4f6e6c792074726561737572792063616e2063616c6c20746869730000000000600082015250565b600061095d601b83610916565b915061096882610927565b602082019050919050565b6000602082019050818103600083015261098c81610950565b9050919050565b7f4e487b7100000000000000000000000000000000000000000000000000000000600052603260045260246000fd5b7f416c726561647920636f6e7472696275746564207468697320726f756e640000600082015250565b60006109f8601e83610916565b9150610a03826109c2565b602082019050919050565b60006020820190508181036000830152610a27816109eb565b9050919050565b6000604082019050610a436000830185610817565b610a506020830184610817565b9392505050565b7f416c7265616479207265636569766564207061796f7574000000000000000000600082015250565b6000610a8d601783610916565b9150610a9882610a57565b602082019050919050565b60006020820190508181036000830152610abc81610a80565b9050919050565b7f4e487b7100000000000000000000000000000000000000000000000000000000600052601160045260246000fd5b6000610afd8261080d565b9150610b088361080d565b9250828202610b168161080d565b91508282048414831517610b2d57610b2c610ac3565b5b5092915050565b6000610b3f8261080d565b91507fffffffffffffffffffffffffffffffffffffffffffffffffffffffffffffffff8203610b7157610b70610ac3565b5b60018201905091905056fea26469706673582212208127cc8d1fc35f01e9b3a0e14656c296bea07ddf81d291b01fb4f3f693ffb07264736f6c63430008180033",
  "linkReferences": {},
  "deployedLinkReferences": {}
}