{
  "_format": "hh-sol-artifact-1",
  "contractName": "SocialCredits",
  "sourceName": "contracts/SocialCredits.sol",
  "abi": [
    {
      "inputs": [],
      "stateMutability": "nonpayable",
      "type": "constructor"
    },
    {
      "anonymous": false,
      "inputs": [
        {
          "indexed": true,
          "internalType": "address",
          "name": "student",
          "type": "address"
        },
        {
          "indexed": true,
          "internalType": "uint256",
          "name": "taskId",
          "type": "uint256"
        },
        {
          "indexed": false,
          "internalType": "uint256",
          "name": "amount",
          "type": "uint256"
        }
      ],
      "name": "CreditMinted",
      "type": "event"
    },
    {
      "inputs": [
        {
          "internalType": "address",
          "name": "",
          "type": "address"
        },
        {
          "internalType": "uint256",
          "name": "",
          "type": "uint256"
        }
      ],
      "name": "creditBalances",
      "outputs": [
        {
          "internalType": "uint256",
          "name": "",
          "type": "uint256"
        }
      ],
      "stateMutability": "view",
      "type": "function"
    },
    {
      "inputs": [
        {
          "internalType": "address",
          "name": "_student",
          "type": "address"
        },
        {
          "internalType": "uint256",
          "name": "_taskId",
          "type": "uint256"
        }
      ],
      "name": "getCreditBalance",
      "outputs": [
        {
          "internalType": "uint256",
          "name": "",
          "type": "uint256"
        }
      ],
      "stateMutability": "view",
      "type": "function"
    },
    {
      "inputs": [
        {
          "internalType": "address",
          "name": "_student",
          "type": "address"
        },
        {
          "internalType": "uint256",
          "name": "_taskId",
          "type": "uint256"
        },
        {
          "internalType": "uint256",
          "name": "_amount",
          "type": "uint256"
        }
      ],
      "name": "mintCredit",
      "outputs": [],
      "stateMutability": "nonpayable",
      "type": "function"
    },
    {
      "inputs": [],
      "name": "treasury",
      "outputs": [
        {
          "internalType": "address",
          "name": "",
          "type": "address"
        }
      ],
      "stateMutability": "view",
      "type": "function"
    }
  ],
  "bytecode": "0x608060405234801561001057600080fd5b50336000806101000a81548173ffffffffffffffffffffffffffffffffffffffff021916908373ffffffffffffffffffffffffffffffffffffffff16021790555061056e806100606000396000f3fe608060405234801561001057600080fd5b506004361061004c5760003560e01c806320a713b2146100515780632743e8c71461008157806361d027b3146100b1578063bc5a5ffe146100cf575b600080fd5b61006b60048036038101906100669190610371565b6100eb565b60405161007891906103c0565b60405180910390f35b61009b60048036038101906100969190610371565b610146565b6040516100a891906103c0565b60405180910390f35b6100b961016b565b6040516100c691906103ea565b60405180910390f35b6100e960048036038101906100e49190610405565b61018f565b005b6000600160008473ffffffffffffffffffffffffffffffffffffffff1673ffffffffffffffffffffffffffffffffffffffff168152602001908152602001600020600083815260200190815260200160002054905092915050565b6001602052816000526040600020602052806000526040600020600091509150505481565b60008054906101000a900473ffffffffffffffffffffffffffffffffffffffff1681565b60008054906101000a900473ffffffffffffffffffffffffffffffffffffffff1673ffffffffffffffffffffffffffffffffffffffff163373ffffffffffffffffffffffffffffffffffffffff161461021d576040517f08c379a0000000000000000000000000000000000000000000000000000000008152600401610214906104b5565b60405180910390fd5b80600160008573ffffffffffffffffffffffffffffffffffffffff1673ffffffffffffffffffffffffffffffffffffffff1681526020019081526020016000206000848152602001908152602001600020600082825461027d9190610504565b92505081905550818373ffffffffffffffffffffffffffffffffffffffff167f3f3b65b9c12a6beef064aa3de056487c5ed4e020ce1f3f6666948b13295d0e5c836040516102cb91906103c0565b60405180910390a3505050565b600080fd5b600073ffffffffffffffffffffffffffffffffffffffff82169050919050565b6000610308826102dd565b9050919050565b610318816102fd565b811461032357600080fd5b50565b6000813590506103358161030f565b92915050565b6000819050919050565b61034e8161033b565b811461035957600080fd5b50565b60008135905061036b81610345565b92915050565b60008060408385031215610388576103876102d8565b5b600061039685828601610326565b92505060206103a78582860161035c565b9150509250929050565b6103ba8161033b565b82525050565b60006020820190506103d560008301846103b1565b92915050565b6103e4816102fd565b82525050565b60006020820190506103ff60008301846103db565b92915050565b60008060006060848603121561041e5761041d6102d8565b5b600061042c86828701610326565b935050602061043d8682870161035c565b925050604061044e8682870161035c565b9150509250925092565b600082825260208201905092915050565b7f4f6e6c792074726561737572792063616e2063616c6c20746869730000000000600082015250565b600061049f601b83610458565b91506104aa82610469565b602082019050919050565b600060208201905081810360008301526104ce81610492565b9050919050565b7f4e487b7100000000000000000000000000000000000000000000000000000000600052601160045260246000fd5b600061050f8261033b565b915061051a8361033b565b9250828201905080821115610532576105316104d5565b5b9291505056fea2646970667358221220475ed3ba5bf0e981051ce9f8359802cc94e0261ee022df00362d34475e1d40ff64736f6c63430008180033",
  "linkReferences": {},
  "deployedLinkReferences": {}
}